{
  "_format": "hh-sol-artifact-1",
  "contractName": "Escrow",
  "sourceName": "contracts/escrow.sol",
  "abi": [
    {
      "inputs": [
        {
          "internalType": "string",
          "name": "p1_id",
          "type": "string"
        }
      ],
      "name": "abort",
      "outputs": [],
      "stateMutability": "payable",
      "type": "function"
    },
    {
      "inputs": [
        {
          "internalType": "string",
          "name": "p1_id",
          "type": "string"
        }
      ],
      "name": "createMatch",
      "outputs": [],
      "stateMutability": "payable",
      "type": "function"
    },
    {
      "inputs": [
        {
          "internalType": "uint256",
          "name": "idx",
          "type": "uint256"
        }
      ],
      "name": "getMatchBet",
      "outputs": [
        {
          "internalType": "uint256",
          "name": "",
          "type": "uint256"
        }
      ],
      "stateMutability": "view",
      "type": "function"
    },
    {
      "inputs": [
        {
          "internalType": "uint256",
          "name": "idx",
          "type": "uint256"
        }
      ],
      "name": "getMatchState",
      "outputs": [
        {
          "internalType": "string",
          "name": "",
          "type": "string"
        }
      ],
      "stateMutability": "view",
      "type": "function"
    },
    {
      "inputs": [
        {
          "internalType": "uint256",
          "name": "idx",
          "type": "uint256"
        }
      ],
      "name": "getPlayer1ID",
      "outputs": [
        {
          "internalType": "string",
          "name": "",
          "type": "string"
        }
      ],
      "stateMutability": "view",
      "type": "function"
    },
    {
      "inputs": [
        {
          "internalType": "uint256",
          "name": "idx",
          "type": "uint256"
        }
      ],
      "name": "getPlayer1State",
      "outputs": [
        {
          "internalType": "string",
          "name": "",
          "type": "string"
        }
      ],
      "stateMutability": "view",
      "type": "function"
    },
    {
      "inputs": [
        {
          "internalType": "uint256",
          "name": "idx",
          "type": "uint256"
        }
      ],
      "name": "getPlayer2ID",
      "outputs": [
        {
          "internalType": "string",
          "name": "",
          "type": "string"
        }
      ],
      "stateMutability": "view",
      "type": "function"
    },
    {
      "inputs": [
        {
          "internalType": "uint256",
          "name": "idx",
          "type": "uint256"
        }
      ],
      "name": "getPlayer2State",
      "outputs": [
        {
          "internalType": "string",
          "name": "",
          "type": "string"
        }
      ],
      "stateMutability": "view",
      "type": "function"
    },
    {
      "inputs": [
        {
          "internalType": "string",
          "name": "p1_id",
          "type": "string"
        },
        {
          "internalType": "string",
          "name": "p2_id",
          "type": "string"
        }
      ],
      "name": "joinMatch",
      "outputs": [],
      "stateMutability": "payable",
      "type": "function"
    },
    {
      "inputs": [
        {
          "internalType": "string",
          "name": "p_id",
          "type": "string"
        }
      ],
      "name": "tie",
      "outputs": [],
      "stateMutability": "payable",
      "type": "function"
    },
    {
      "inputs": [
        {
          "internalType": "string",
          "name": "p_id",
          "type": "string"
        }
      ],
      "name": "victory",
      "outputs": [],
      "stateMutability": "payable",
      "type": "function"
    }
  ],
  "bytecode": "0x608060405234801561001057600080fd5b50613d15806100206000396000f3fe60806040526004361061009c5760003560e01c80635762b50c116100645780635762b50c146101b157806358f32967146101cd5780635edcceb8146101e95780636e184adc14610226578063a271d02f14610242578063bc671b561461027f5761009c565b80630b6d8a67146100a157806322b241ba146100de57806335acac4e1461011b5780633d4fe69614610137578063518e679c14610174575b600080fd5b3480156100ad57600080fd5b506100c860048036038101906100c3919061375b565b61029b565b6040516100d59190613797565b60405180910390f35b3480156100ea57600080fd5b506101056004803603810190610100919061375b565b6102c9565b604051610112919061384b565b60405180910390f35b610135600480360381019061013091906138d2565b6106c2565b005b34801561014357600080fd5b5061015e6004803603810190610159919061375b565b610bf7565b60405161016b919061384b565b60405180910390f35b34801561018057600080fd5b5061019b6004803603810190610196919061375b565b610ff0565b6040516101a8919061384b565b60405180910390f35b6101cb60048036038101906101c691906138d2565b6110aa565b005b6101e760048036038101906101e291906138d2565b6114dd565b005b3480156101f557600080fd5b50610210600480360381019061020b919061375b565b6118be565b60405161021d919061384b565b60405180910390f35b610240600480360381019061023b919061391f565b611978565b005b34801561024e57600080fd5b506102696004803603810190610264919061375b565b611e2a565b604051610276919061384b565b60405180910390f35b610299600480360381019061029491906138d2565b6120d9565b005b60008082815481106102b0576102af6139a0565b5b9060005260206000209060060201600001549050919050565b6060600060058111156102df576102de6139cf565b5b600083815481106102f3576102f26139a0565b5b906000526020600020906006020160020160010160009054906101000a900460ff166005811115610327576103266139cf565b5b141561036a576040518060400160405280600481526020017f494e49540000000000000000000000000000000000000000000000000000000081525090506106bd565b6001600581111561037e5761037d6139cf565b5b60008381548110610392576103916139a0565b5b906000526020600020906006020160020160010160009054906101000a900460ff1660058111156103c6576103c56139cf565b5b1415610409576040518060400160405280600781526020017f57414954494e470000000000000000000000000000000000000000000000000081525090506106bd565b6002600581111561041d5761041c6139cf565b5b60008381548110610431576104306139a0565b5b906000526020600020906006020160020160010160009054906101000a900460ff166005811115610465576104646139cf565b5b14156104a8576040518060400160405280600781526020017f564943544f52590000000000000000000000000000000000000000000000000081525090506106bd565b600360058111156104bc576104bb6139cf565b5b600083815481106104d0576104cf6139a0565b5b906000526020600020906006020160020160010160009054906101000a900460ff166005811115610504576105036139cf565b5b1415610547576040518060400160405280600681526020017f444546454154000000000000000000000000000000000000000000000000000081525090506106bd565b6004600581111561055b5761055a6139cf565b5b6000838154811061056f5761056e6139a0565b5b906000526020600020906006020160020160010160009054906101000a900460ff1660058111156105a3576105a26139cf565b5b14156105e6576040518060400160405280600381526020017f544945000000000000000000000000000000000000000000000000000000000081525090506106bd565b6005808111156105f9576105f86139cf565b5b6000838154811061060d5761060c6139a0565b5b906000526020600020906006020160020160010160009054906101000a900460ff166005811115610641576106406139cf565b5b1415610684576040518060400160405280600381526020017f46494e000000000000000000000000000000000000000000000000000000000081525090506106bd565b6040518060400160405280600581526020017f4552524f5200000000000000000000000000000000000000000000000000000081525090505b919050565b60005b600080549050811015610bf25782826040516020016106e5929190613a3d565b604051602081830303815290604052805190602001206000828154811061070f5761070e6139a0565b5b90600052602060002090600602016002016000016040516020016107339190613b4b565b604051602081830303815290604052805190602001201415610bdf5760006003811115610763576107626139cf565b5b60008281548110610777576107766139a0565b5b906000526020600020906006020160010160009054906101000a900460ff1660038111156107a8576107a76139cf565b5b146107b257600080fd5b6003600082815481106107c8576107c76139a0565b5b906000526020600020906006020160010160006101000a81548160ff021916908360038111156107fb576107fa6139cf565b5b021790555060008181548110610814576108136139a0565b5b906000526020600020906006020160020160010160019054906101000a900473ffffffffffffffffffffffffffffffffffffffff1673ffffffffffffffffffffffffffffffffffffffff166108fc60008381548110610876576108756139a0565b5b9060005260206000209060060201600001549081150290604051600060405180830381858888f193505050501580156108b3573d6000803e3d6000fd5b50600060016000805490506108c89190613b91565b815481106108d9576108d86139a0565b5b9060005260206000209060060201600082815481106108fb576108fa6139a0565b5b9060005260206000209060060201600082015481600001556001820160009054906101000a900460ff168160010160006101000a81548160ff0219169083600381111561094b5761094a6139cf565b5b02179055506002820181600201600082018160000190805461096c90613a85565b610977929190613525565b506001820160009054906101000a900460ff168160010160006101000a81548160ff021916908360058111156109b0576109af6139cf565b5b02179055506001820160019054906101000a900473ffffffffffffffffffffffffffffffffffffffff168160010160016101000a81548173ffffffffffffffffffffffffffffffffffffffff021916908373ffffffffffffffffffffffffffffffffffffffff160217905550505060048201816004016000820181600001908054610a3a90613a85565b610a45929190613525565b506001820160009054906101000a900460ff168160010160006101000a81548160ff02191690836005811115610a7e57610a7d6139cf565b5b02179055506001820160019054906101000a900473ffffffffffffffffffffffffffffffffffffffff168160010160016101000a81548173ffffffffffffffffffffffffffffffffffffffff021916908373ffffffffffffffffffffffffffffffffffffffff16021790555050509050506000805480610b0157610b00613bc5565b5b60019003818190600052602060002090600602016000808201600090556001820160006101000a81549060ff02191690556002820160008082016000610b4791906135b2565b6001820160006101000a81549060ff02191690556001820160016101000a81549073ffffffffffffffffffffffffffffffffffffffff021916905550506004820160008082016000610b9991906135b2565b6001820160006101000a81549060ff02191690556001820160016101000a81549073ffffffffffffffffffffffffffffffffffffffff0219169055505050509055610bf2565b8080610bea90613bf4565b9150506106c5565b505050565b606060006005811115610c0d57610c0c6139cf565b5b60008381548110610c2157610c206139a0565b5b906000526020600020906006020160040160010160009054906101000a900460ff166005811115610c5557610c546139cf565b5b1415610c98576040518060400160405280600481526020017f494e4954000000000000000000000000000000000000000000000000000000008152509050610feb565b60016005811115610cac57610cab6139cf565b5b60008381548110610cc057610cbf6139a0565b5b906000526020600020906006020160040160010160009054906101000a900460ff166005811115610cf457610cf36139cf565b5b1415610d37576040518060400160405280600781526020017f57414954494e47000000000000000000000000000000000000000000000000008152509050610feb565b60026005811115610d4b57610d4a6139cf565b5b60008381548110610d5f57610d5e6139a0565b5b906000526020600020906006020160040160010160009054906101000a900460ff166005811115610d9357610d926139cf565b5b1415610dd6576040518060400160405280600781526020017f564943544f5259000000000000000000000000000000000000000000000000008152509050610feb565b60036005811115610dea57610de96139cf565b5b60008381548110610dfe57610dfd6139a0565b5b906000526020600020906006020160040160010160009054906101000a900460ff166005811115610e3257610e316139cf565b5b1415610e75576040518060400160405280600681526020017f44454645415400000000000000000000000000000000000000000000000000008152509050610feb565b60046005811115610e8957610e886139cf565b5b60008381548110610e9d57610e9c6139a0565b5b906000526020600020906006020160040160010160009054906101000a900460ff166005811115610ed157610ed06139cf565b5b1415610f14576040518060400160405280600381526020017f54494500000000000000000000000000000000000000000000000000000000008152509050610feb565b600580811115610f2757610f266139cf565b5b60008381548110610f3b57610f3a6139a0565b5b906000526020600020906006020160040160010160009054906101000a900460ff166005811115610f6f57610f6e6139cf565b5b1415610fb2576040518060400160405280600381526020017f46494e00000000000000000000000000000000000000000000000000000000008152509050610feb565b6040518060400160405280600581526020017f4552524f5200000000000000000000000000000000000000000000000000000081525090505b919050565b606060008281548110611006576110056139a0565b5b9060005260206000209060060201600401600001805461102590613a85565b80601f016020809104026020016040519081016040528092919081815260200182805461105190613a85565b801561109e5780601f106110735761010080835404028352916020019161109e565b820191906000526020600020905b81548152906001019060200180831161108157829003601f168201915b50505050509050919050565b81818080601f016020809104026020016040519081016040528093929190818152602001838380828437600081840152601f19601f8201169050808301925050505050505060005b60008054905081101561121257816040516020016111109190613c6e565b604051602081830303815290604052805190602001206000828154811061113a576111396139a0565b5b906000526020600020906006020160020160000160405160200161115e9190613b4b565b60405160208183030381529060405280519060200120141561117f57600080fd5b816040516020016111909190613c6e565b60405160208183030381529060405280519060200120600082815481106111ba576111b96139a0565b5b90600052602060002090600602016004016000016040516020016111de9190613b4b565b6040516020818303038152906040528051906020012014156111ff57600080fd5b808061120a90613bf4565b9150506110f2565b506000604051806060016040528085858080601f016020809104026020016040519081016040528093929190818152602001838380828437600081840152601f19601f8201169050808301925050505050505081526020016001600581111561127e5761127d6139cf565b5b81526020013373ffffffffffffffffffffffffffffffffffffffff16815250905060006040518060600160405280604051806020016040528060008152508152602001600060058111156112d5576112d46139cf565b5b8152602001600073ffffffffffffffffffffffffffffffffffffffff168152509050600060405180608001604052803481526020016000600381111561131e5761131d6139cf565b5b815260200184815260200183815250905060008190806001815401808255809150506001900390600052602060002090600602016000909190919091506000820151816000015560208201518160010160006101000a81548160ff021916908360038111156113905761138f6139cf565b5b021790555060408201518160020160008201518160000190805190602001906113ba9291906135f2565b5060208201518160010160006101000a81548160ff021916908360058111156113e6576113e56139cf565b5b021790555060408201518160010160016101000a81548173ffffffffffffffffffffffffffffffffffffffff021916908373ffffffffffffffffffffffffffffffffffffffff160217905550505060608201518160040160008201518160000190805190602001906114599291906135f2565b5060208201518160010160006101000a81548160ff02191690836005811115611485576114846139cf565b5b021790555060408201518160010160016101000a81548173ffffffffffffffffffffffffffffffffffffffff021916908373ffffffffffffffffffffffffffffffffffffffff16021790555050505050505050505050565b60005b6000805490508110156118b95760008383604051602001611502929190613a3d565b604051602081830303815290604052805190602001206000838154811061152c5761152b6139a0565b5b90600052602060002090600602016002016000016040516020016115509190613b4b565b60405160208183030381529060405280519060200120141561167657600160038111156115805761157f6139cf565b5b60008381548110611594576115936139a0565b5b906000526020600020906006020160010160009054906101000a900460ff1660038111156115c5576115c46139cf565b5b146115cf57600080fd5b6002600083815481106115e5576115e46139a0565b5b906000526020600020906006020160020160010160006101000a81548160ff0219169083600581111561161b5761161a6139cf565b5b0217905550600360008381548110611636576116356139a0565b5b906000526020600020906006020160040160010160006101000a81548160ff0219169083600581111561166c5761166b6139cf565b5b0217905550600190505b8383604051602001611689929190613a3d565b60405160208183030381529060405280519060200120600083815481106116b3576116b26139a0565b5b90600052602060002090600602016004016000016040516020016116d79190613b4b565b6040516020818303038152906040528051906020012014156117fd5760016003811115611707576117066139cf565b5b6000838154811061171b5761171a6139a0565b5b906000526020600020906006020160010160009054906101000a900460ff16600381111561174c5761174b6139cf565b5b1461175657600080fd5b60036000838154811061176c5761176b6139a0565b5b906000526020600020906006020160020160010160006101000a81548160ff021916908360058111156117a2576117a16139cf565b5b02179055506002600083815481106117bd576117bc6139a0565b5b906000526020600020906006020160040160010160006101000a81548160ff021916908360058111156117f3576117f26139cf565b5b0217905550600190505b80156118a557600260008381548110611819576118186139a0565b5b906000526020600020906006020160010160006101000a81548160ff0219169083600381111561184c5761184b6139cf565b5b021790555061189f8285858080601f016020809104026020016040519081016040528093929190818152602001838380828437600081840152601f19601f82011690508083019250505050505050612633565b506118b9565b5080806118b190613bf4565b9150506114e0565b505050565b6060600082815481106118d4576118d36139a0565b5b906000526020600020906006020160020160000180546118f390613a85565b80601f016020809104026020016040519081016040528092919081815260200182805461191f90613a85565b801561196c5780601f106119415761010080835404028352916020019161196c565b820191906000526020600020905b81548152906001019060200180831161194f57829003601f168201915b50505050509050919050565b81818080601f016020809104026020016040519081016040528093929190818152602001838380828437600081840152601f19601f8201169050808301925050505050505060005b600080549050811015611ae057816040516020016119de9190613c6e565b6040516020818303038152906040528051906020012060008281548110611a0857611a076139a0565b5b9060005260206000209060060201600201600001604051602001611a2c9190613b4b565b604051602081830303815290604052805190602001201415611a4d57600080fd5b81604051602001611a5e9190613c6e565b6040516020818303038152906040528051906020012060008281548110611a8857611a876139a0565b5b9060005260206000209060060201600401600001604051602001611aac9190613b4b565b604051602081830303815290604052805190602001201415611acd57600080fd5b8080611ad890613bf4565b9150506119c0565b5060005b600080549050811015611e22578585604051602001611b04929190613a3d565b6040516020818303038152906040528051906020012060008281548110611b2e57611b2d6139a0565b5b9060005260206000209060060201600201600001604051602001611b529190613b4b565b604051602081830303815290604052805190602001201415611e0f5760006003811115611b8257611b816139cf565b5b60008281548110611b9657611b956139a0565b5b906000526020600020906006020160010160009054906101000a900460ff166003811115611bc757611bc66139cf565b5b148015611bf857503460008281548110611be457611be36139a0565b5b906000526020600020906006020160000154145b611c0157600080fd5b60016005811115611c1557611c146139cf565b5b60008281548110611c2957611c286139a0565b5b906000526020600020906006020160020160010160009054906101000a900460ff166005811115611c5d57611c5c6139cf565b5b148015611cc3575060006005811115611c7957611c786139cf565b5b60008281548110611c8d57611c8c6139a0565b5b906000526020600020906006020160040160010160009054906101000a900460ff166005811115611cc157611cc06139cf565b5b145b611ccc57600080fd5b838360008381548110611ce257611ce16139a0565b5b90600052602060002090600602016004016000019190611d03929190613678565b50600160008281548110611d1a57611d196139a0565b5b906000526020600020906006020160040160010160006101000a81548160ff02191690836005811115611d5057611d4f6139cf565b5b02179055503360008281548110611d6a57611d696139a0565b5b906000526020600020906006020160040160010160016101000a81548173ffffffffffffffffffffffffffffffffffffffff021916908373ffffffffffffffffffffffffffffffffffffffff160217905550600160008281548110611dd257611dd16139a0565b5b906000526020600020906006020160010160006101000a81548160ff02191690836003811115611e0557611e046139cf565b5b0217905550611e22565b8080611e1a90613bf4565b915050611ae4565b505050505050565b606060006003811115611e4057611e3f6139cf565b5b60008381548110611e5457611e536139a0565b5b906000526020600020906006020160010160009054906101000a900460ff166003811115611e8557611e846139cf565b5b1415611ec8576040518060400160405280601081526020017f57414954494e475f494e5f4c4f4242590000000000000000000000000000000081525090506120d4565b60016003811115611edc57611edb6139cf565b5b60008381548110611ef057611eef6139a0565b5b906000526020600020906006020160010160009054906101000a900460ff166003811115611f2157611f206139cf565b5b1415611f64576040518060400160405280601181526020017f4d415443485f494e5f50524f475245535300000000000000000000000000000081525090506120d4565b60026003811115611f7857611f776139cf565b5b60008381548110611f8c57611f8b6139a0565b5b906000526020600020906006020160010160009054906101000a900460ff166003811115611fbd57611fbc6139cf565b5b1415612000576040518060400160405280600981526020017f4d415443485f454e44000000000000000000000000000000000000000000000081525090506120d4565b600380811115612013576120126139cf565b5b60008381548110612027576120266139a0565b5b906000526020600020906006020160010160009054906101000a900460ff166003811115612058576120576139cf565b5b141561209b576040518060400160405280600d81526020017f4d415443485f41424f525445440000000000000000000000000000000000000081525090506120d4565b6040518060400160405280600581526020017f4552524f5200000000000000000000000000000000000000000000000000000081525090505b919050565b60005b60008054905081101561262e5782826040516020016120fc929190613a3d565b6040516020818303038152906040528051906020012060008281548110612126576121256139a0565b5b906000526020600020906006020160020160000160405160200161214a9190613b4b565b604051602081830303815290604052805190602001201415612382576001600381111561217a576121796139cf565b5b6000828154811061218e5761218d6139a0565b5b906000526020600020906006020160010160009054906101000a900460ff1660038111156121bf576121be6139cf565b5b14806122215750600260038111156121da576121d96139cf565b5b600082815481106121ee576121ed6139a0565b5b906000526020600020906006020160010160009054906101000a900460ff16600381111561221f5761221e6139cf565b5b145b61222a57600080fd5b6001600581111561223e5761223d6139cf565b5b60008281548110612252576122516139a0565b5b906000526020600020906006020160020160010160009054906101000a900460ff166005811115612286576122856139cf565b5b1461229057600080fd5b6004600082815481106122a6576122a56139a0565b5b906000526020600020906006020160020160010160006101000a81548160ff021916908360058111156122dc576122db6139cf565b5b02179055506002600082815481106122f7576122f66139a0565b5b906000526020600020906006020160010160006101000a81548160ff0219169083600381111561232a576123296139cf565b5b021790555061237d8184848080601f016020809104026020016040519081016040528093929190818152602001838380828437600081840152601f19601f82011690508083019250505050505050612d04565b61262e565b8282604051602001612395929190613a3d565b60405160208183030381529060405280519060200120600082815481106123bf576123be6139a0565b5b90600052602060002090600602016004016000016040516020016123e39190613b4b565b60405160208183030381529060405280519060200120141561261b5760016003811115612413576124126139cf565b5b60008281548110612427576124266139a0565b5b906000526020600020906006020160010160009054906101000a900460ff166003811115612458576124576139cf565b5b14806124ba575060026003811115612473576124726139cf565b5b60008281548110612487576124866139a0565b5b906000526020600020906006020160010160009054906101000a900460ff1660038111156124b8576124b76139cf565b5b145b6124c357600080fd5b600160058111156124d7576124d66139cf565b5b600082815481106124eb576124ea6139a0565b5b906000526020600020906006020160040160010160009054906101000a900460ff16600581111561251f5761251e6139cf565b5b1461252957600080fd5b60046000828154811061253f5761253e6139a0565b5b906000526020600020906006020160040160010160006101000a81548160ff02191690836005811115612575576125746139cf565b5b02179055506002600082815481106125905761258f6139a0565b5b906000526020600020906006020160010160006101000a81548160ff021916908360038111156125c3576125c26139cf565b5b02179055506126168184848080601f016020809104026020016040519081016040528093929190818152602001838380828437600081840152601f19601f82011690508083019250505050505050612d04565b61262e565b808061262690613bf4565b9150506120dc565b505050565b60026003811115612647576126466139cf565b5b6000838154811061265b5761265a6139a0565b5b906000526020600020906006020160010160009054906101000a900460ff16600381111561268c5761268b6139cf565b5b1461269657600080fd5b806040516020016126a79190613c6e565b60405160208183030381529060405280519060200120600083815481106126d1576126d06139a0565b5b90600052602060002090600602016002016000016040516020016126f59190613b4b565b6040516020818303038152906040528051906020012014156128385760026005811115612725576127246139cf565b5b60008381548110612739576127386139a0565b5b906000526020600020906006020160020160010160009054906101000a900460ff16600581111561276d5761276c6139cf565b5b1461277757600080fd5b6000828154811061278b5761278a6139a0565b5b906000526020600020906006020160020160010160019054906101000a900473ffffffffffffffffffffffffffffffffffffffff1673ffffffffffffffffffffffffffffffffffffffff166108fc6002600085815481106127ef576127ee6139a0565b5b90600052602060002090600602016000015461280b9190613c85565b9081150290604051600060405180830381858888f19350505050158015612836573d6000803e3d6000fd5b505b806040516020016128499190613c6e565b6040516020818303038152906040528051906020012060008381548110612873576128726139a0565b5b90600052602060002090600602016004016000016040516020016128979190613b4b565b6040516020818303038152906040528051906020012014156129da57600260058111156128c7576128c66139cf565b5b600083815481106128db576128da6139a0565b5b906000526020600020906006020160040160010160009054906101000a900460ff16600581111561290f5761290e6139cf565b5b1461291957600080fd5b6000828154811061292d5761292c6139a0565b5b906000526020600020906006020160040160010160019054906101000a900473ffffffffffffffffffffffffffffffffffffffff1673ffffffffffffffffffffffffffffffffffffffff166108fc600260008581548110612991576129906139a0565b5b9060005260206000209060060201600001546129ad9190613c85565b9081150290604051600060405180830381858888f193505050501580156129d8573d6000803e3d6000fd5b505b600060016000805490506129ee9190613b91565b815481106129ff576129fe6139a0565b5b906000526020600020906006020160008381548110612a2157612a206139a0565b5b9060005260206000209060060201600082015481600001556001820160009054906101000a900460ff168160010160006101000a81548160ff02191690836003811115612a7157612a706139cf565b5b021790555060028201816002016000820181600001908054612a9290613a85565b612a9d929190613525565b506001820160009054906101000a900460ff168160010160006101000a81548160ff02191690836005811115612ad657612ad56139cf565b5b02179055506001820160019054906101000a900473ffffffffffffffffffffffffffffffffffffffff168160010160016101000a81548173ffffffffffffffffffffffffffffffffffffffff021916908373ffffffffffffffffffffffffffffffffffffffff160217905550505060048201816004016000820181600001908054612b6090613a85565b612b6b929190613525565b506001820160009054906101000a900460ff168160010160006101000a81548160ff02191690836005811115612ba457612ba36139cf565b5b02179055506001820160019054906101000a900473ffffffffffffffffffffffffffffffffffffffff168160010160016101000a81548173ffffffffffffffffffffffffffffffffffffffff021916908373ffffffffffffffffffffffffffffffffffffffff16021790555050509050506000805480612c2757612c26613bc5565b5b60019003818190600052602060002090600602016000808201600090556001820160006101000a81549060ff02191690556002820160008082016000612c6d91906135b2565b6001820160006101000a81549060ff02191690556001820160016101000a81549073ffffffffffffffffffffffffffffffffffffffff021916905550506004820160008082016000612cbf91906135b2565b6001820160006101000a81549060ff02191690556001820160016101000a81549073ffffffffffffffffffffffffffffffffffffffff02191690555050505090555050565b60026003811115612d1857612d176139cf565b5b60008381548110612d2c57612d2b6139a0565b5b906000526020600020906006020160010160009054906101000a900460ff166003811115612d5d57612d5c6139cf565b5b14612d6757600080fd5b80604051602001612d789190613c6e565b6040516020818303038152906040528051906020012060008381548110612da257612da16139a0565b5b9060005260206000209060060201600201600001604051602001612dc69190613b4b565b604051602081830303815290604052805190602001201415612f4e5760046005811115612df657612df56139cf565b5b60008381548110612e0a57612e096139a0565b5b906000526020600020906006020160020160010160009054906101000a900460ff166005811115612e3e57612e3d6139cf565b5b14612e4857600080fd5b600560008381548110612e5e57612e5d6139a0565b5b906000526020600020906006020160020160010160006101000a81548160ff02191690836005811115612e9457612e936139cf565b5b021790555060008281548110612ead57612eac6139a0565b5b906000526020600020906006020160020160010160019054906101000a900473ffffffffffffffffffffffffffffffffffffffff1673ffffffffffffffffffffffffffffffffffffffff166108fc60008481548110612f0f57612f0e6139a0565b5b9060005260206000209060060201600001549081150290604051600060405180830381858888f19350505050158015612f4c573d6000803e3d6000fd5b505b80604051602001612f5f9190613c6e565b6040516020818303038152906040528051906020012060008381548110612f8957612f886139a0565b5b9060005260206000209060060201600401600001604051602001612fad9190613b4b565b6040516020818303038152906040528051906020012014156131355760046005811115612fdd57612fdc6139cf565b5b60008381548110612ff157612ff06139a0565b5b906000526020600020906006020160040160010160009054906101000a900460ff166005811115613025576130246139cf565b5b1461302f57600080fd5b600560008381548110613045576130446139a0565b5b906000526020600020906006020160040160010160006101000a81548160ff0219169083600581111561307b5761307a6139cf565b5b021790555060008281548110613094576130936139a0565b5b906000526020600020906006020160040160010160019054906101000a900473ffffffffffffffffffffffffffffffffffffffff1673ffffffffffffffffffffffffffffffffffffffff166108fc600084815481106130f6576130f56139a0565b5b9060005260206000209060060201600001549081150290604051600060405180830381858888f19350505050158015613133573d6000803e3d6000fd5b505b600580811115613148576131476139cf565b5b6000838154811061315c5761315b6139a0565b5b906000526020600020906006020160020160010160009054906101000a900460ff1660058111156131905761318f6139cf565b5b1480156131f557506005808111156131ab576131aa6139cf565b5b600083815481106131bf576131be6139a0565b5b906000526020600020906006020160040160010160009054906101000a900460ff1660058111156131f3576131f26139cf565b5b145b15613521576000600160008054905061320e9190613b91565b8154811061321f5761321e6139a0565b5b906000526020600020906006020160008381548110613241576132406139a0565b5b9060005260206000209060060201600082015481600001556001820160009054906101000a900460ff168160010160006101000a81548160ff02191690836003811115613291576132906139cf565b5b0217905550600282018160020160008201816000019080546132b290613a85565b6132bd929190613525565b506001820160009054906101000a900460ff168160010160006101000a81548160ff021916908360058111156132f6576132f56139cf565b5b02179055506001820160019054906101000a900473ffffffffffffffffffffffffffffffffffffffff168160010160016101000a81548173ffffffffffffffffffffffffffffffffffffffff021916908373ffffffffffffffffffffffffffffffffffffffff16021790555050506004820181600401600082018160000190805461338090613a85565b61338b929190613525565b506001820160009054906101000a900460ff168160010160006101000a81548160ff021916908360058111156133c4576133c36139cf565b5b02179055506001820160019054906101000a900473ffffffffffffffffffffffffffffffffffffffff168160010160016101000a81548173ffffffffffffffffffffffffffffffffffffffff021916908373ffffffffffffffffffffffffffffffffffffffff1602179055505050905050600080548061344757613446613bc5565b5b60019003818190600052602060002090600602016000808201600090556001820160006101000a81549060ff0219169055600282016000808201600061348d91906135b2565b6001820160006101000a81549060ff02191690556001820160016101000a81549073ffffffffffffffffffffffffffffffffffffffff0219169055505060048201600080820160006134df91906135b2565b6001820160006101000a81549060ff02191690556001820160016101000a81549073ffffffffffffffffffffffffffffffffffffffff02191690555050505090555b5050565b82805461353190613a85565b90600052602060002090601f01602090048101928261355357600085556135a1565b82601f1061356457805485556135a1565b828001600101855582156135a157600052602060002091601f016020900482015b828111156135a0578254825591600101919060010190613585565b5b5090506135ae91906136fe565b5090565b5080546135be90613a85565b6000825580601f106135d057506135ef565b601f0160209004906000526020600020908101906135ee91906136fe565b5b50565b8280546135fe90613a85565b90600052602060002090601f0160209004810192826136205760008555613667565b82601f1061363957805160ff1916838001178555613667565b82800160010185558215613667579182015b8281111561366657825182559160200191906001019061364b565b5b50905061367491906136fe565b5090565b82805461368490613a85565b90600052602060002090601f0160209004810192826136a657600085556136ed565b82601f106136bf57803560ff19168380011785556136ed565b828001600101855582156136ed579182015b828111156136ec5782358255916020019190600101906136d1565b5b5090506136fa91906136fe565b5090565b5b808211156137175760008160009055506001016136ff565b5090565b600080fd5b600080fd5b6000819050919050565b61373881613725565b811461374357600080fd5b50565b6000813590506137558161372f565b92915050565b6000602082840312156137715761377061371b565b5b600061377f84828501613746565b91505092915050565b61379181613725565b82525050565b60006020820190506137ac6000830184613788565b92915050565b600081519050919050565b600082825260208201905092915050565b60005b838110156137ec5780820151818401526020810190506137d1565b838111156137fb576000848401525b50505050565b6000601f19601f8301169050919050565b600061381d826137b2565b61382781856137bd565b93506138378185602086016137ce565b61384081613801565b840191505092915050565b600060208201905081810360008301526138658184613812565b905092915050565b600080fd5b600080fd5b600080fd5b60008083601f8401126138925761389161386d565b5b8235905067ffffffffffffffff8111156138af576138ae613872565b5b6020830191508360018202830111156138cb576138ca613877565b5b9250929050565b600080602083850312156138e9576138e861371b565b5b600083013567ffffffffffffffff81111561390757613906613720565b5b6139138582860161387c565b92509250509250929050565b600080600080604085870312156139395761393861371b565b5b600085013567ffffffffffffffff81111561395757613956613720565b5b6139638782880161387c565b9450945050602085013567ffffffffffffffff81111561398657613985613720565b5b6139928782880161387c565b925092505092959194509250565b7f4e487b7100000000000000000000000000000000000000000000000000000000600052603260045260246000fd5b7f4e487b7100000000000000000000000000000000000000000000000000000000600052602160045260246000fd5b600081905092915050565b82818337600083830152505050565b6000613a2483856139fe565b9350613a31838584613a09565b82840190509392505050565b6000613a4a828486613a18565b91508190509392505050565b7f4e487b7100000000000000000000000000000000000000000000000000000000600052602260045260246000fd5b60006002820490506001821680613a9d57607f821691505b60208210811415613ab157613ab0613a56565b5b50919050565b60008190508160005260206000209050919050565b60008154613ad981613a85565b613ae381866139fe565b94506001821660008114613afe5760018114613b0f57613b42565b60ff19831686528186019350613b42565b613b1885613ab7565b60005b83811015613b3a57815481890152600182019150602081019050613b1b565b838801955050505b50505092915050565b6000613b578284613acc565b915081905092915050565b7f4e487b7100000000000000000000000000000000000000000000000000000000600052601160045260246000fd5b6000613b9c82613725565b9150613ba783613725565b925082821015613bba57613bb9613b62565b5b828203905092915050565b7f4e487b7100000000000000000000000000000000000000000000000000000000600052603160045260246000fd5b6000613bff82613725565b91507fffffffffffffffffffffffffffffffffffffffffffffffffffffffffffffffff821415613c3257613c31613b62565b5b600182019050919050565b6000613c48826137b2565b613c5281856139fe565b9350613c628185602086016137ce565b80840191505092915050565b6000613c7a8284613c3d565b915081905092915050565b6000613c9082613725565b9150613c9b83613725565b9250817fffffffffffffffffffffffffffffffffffffffffffffffffffffffffffffffff0483118215151615613cd457613cd3613b62565b5b82820290509291505056fea26469706673582212206a2e1ce973c810c8846c1ac254aac2ca41ce960ea31e98d0fe88d1d78c30e5fa64736f6c63430008090033",
  "linkReferences": {},
  "deployedLinkReferences": {}
}